:100000000C94F2010C9413020C9413020C9413023E
:100010000C9413020C9413020C9413020C9413020C
:100020000C9413020C9413020C9413020C941302FC
:100030000C9413020C9413020C9413020C941302EC
:100040000C9413020C9413020C94BF020C949202B1
:100050000C9413020C9413020C9413020C941302CC
:100060000C9413020C94EC020C9413020C941302E3
:100070000C9413020C9413020C9413020C941302AC
:100080000C9413020C9413020C9413020C9413029C
:100090000C9413020C9413020C9413020C9413028C
:1000A0000C9413020C9413020C9413020C9413027C
:1000B0000C9413020C9413020C9413020C9413026C
:1000C0000C9413020C9413020C9413020C9413025C
:1000D0000C9413020C9413020C9413020C9413024C
:1000E0000C941302000000000000000000005F00FC
:1000F00000000000000007000700000000147F144B
:100100007F14000000242A7F2A1200000023130815
:1001100064620000003649552250000000000503CB
:1001200000000000001C2241000000000041221CD1
:100130000000000000082A1C2A0800000008083EF1
:100140000808000000A06000000000000008080887
:100150000808000000606000000000000020100897
:1001600004020000003E5149453E00000000427F6D
:100170004000000000625149494600000022414908
:1001800049360000001814127F1000000027454572
:1001900045390000003C4A4949300000000171091E
:1001A0000503000000364949493600000006494968
:1001B000291E000000003636000000000000AC6C74
:1001C0000000000000081422410000000014141474
:1001D0001414000000412214080000000002015124
:1001E0000906000000324979413E0000007E0909FD
:1001F000097E0000007F494949360000003E414128
:1002000041220000007F4141221C0000007F49493B
:1002100049410000007F090909010000003E4141F9
:1002200051720000007F0808087F000000417F41F4
:1002300000000000002040413F010000007F081442
:1002400022410000007F404040400000007F020C3F
:10025000027F0000007F0408107F0000003E414143
:10026000413E0000007F090909060000003E41519F
:10027000215E0000007F0919294600000026494937
:10028000493200000001017F01010000003F4040B1
:10029000403F0000001F2040201F0000003F40386A
:1002A000403F00000063140814630000000304785A
:1002B000040300000061514945430000007F4141B3
:1002C0000000000000020408102000000041417FEF
:1002D0000000000000040201020400000080808091
:1002E000808000000001020400000000002054543F
:1002F00054780000007F48444438000000384444EB
:100300002800000000384444487F0000003854545E
:100310005418000000087E09020000000018A4A480
:10032000A47C0000007F08040478000000007D0029
:10033000000000000080847D00000000007F102885
:100340004400000000417F4000000000007C0418D1
:1003500004780000007C08047C000000003844445D
:100360003800000000FC2424180000000018242499
:10037000FC00000000007C08040000000048545409
:100380002400000000047F4400000000003C4040C6
:100390007C000000001C2040201C0000003C40307D
:1003A000403C00000044281028440000001CA0A08D
:1003B0007C000000004464544C44000000083641B6
:1003C0000000000000007F0000000000004136082F
:1003D000000000000002010102010000000205050A
:1003E0000200000011241FBECFEFD1E2DEBFCDBF5F
:1003F00000E00CBF12E0A0E0B2E0E8E9F7E000E0C6
:100400000BBF02C007900D92A630B107D9F722E0CA
:10041000A6E0B2E001C01D92A938B207E1F70E9440
:1004200002030C94CA030C9400008093BB0084E880
:100430008093BC008091BC0087FFFCCF8091B90005
:10044000887F883221F0803321F082E0089580E0B7
:10045000089581E0089594EA9093BC009091BC00C7
:1004600097FFFCCF9091B900987F983091F48093DA
:10047000BB0084E88093BC008091BC0087FFFCCF68
:100480008091B900887F883131F0803231F083E08B
:10049000089580E0089581E0089582E00895CF9363
:1004A000C82F809104020E942B0280E40E94150252
:1004B0008C2F0E94150284E98093BC008091BC00BF
:1004C00084FDFCCFCF910895CF93C82F8091040273
:1004D0000E942B0280E00E9415028C2F0E941502C0
:1004E00084E98093BC008091BC0084FDFCCFCF9157
:1004F0000895CF93DF93C0EB8C2F0E94640280E0BD
:100500000E94640280E10E946402D0E080E00E94C8
:100510004F02DF5FD038D1F7CF5FC83B69F7DF917B
:10052000CF9108951F920F920FB60F9211242F931F
:100530003F938F939F939091030280918000892332
:1005400080938000209102028091800094E0290233
:1005500090011124822B80938000809102028230CE
:1005600061F483E0809302029F918F913F912F91DC
:100570000F900FBE0F901F90189582E0F3CF1F923F
:100580000F920FB60F9211242F933F938F939F9347
:1005900090910102809180008923809380002091B6
:1005A00000028091800090E1290290011124822BA9
:1005B0008093800080910002823061F483E0809318
:1005C00000029F918F913F912F910F900FBE0F903E
:1005D0001F90189582E0F3CF1F920F920FB60F92E3
:1005E00011248F939F938091C6009091C00095FF36
:1005F000FCCF8093C6009F918F910F900FBE0F90FC
:100600001F90189588E780930402089A109A2FEF9C
:1006100083ED90E3215080409040E1F700C000005E
:1006200082E18093B8008091B9008C7F8093B900FB
:1006300085E08093BC008EEA0E94640285ED0E94F2
:10064000640280E80E94640288EA0E9464028FE3E8
:100650000E94640283ED0E94640280E00E946402B2
:1006600080E40E9464028DE80E94640284E10E949A
:10067000640280E20E94640280E00E94640281EAD7
:100680000E94640288EC0E9464028AED0E94640267
:1006900082E10E94640281E80E9464028FEC0E9461
:1006A000640289ED0E94640281EF0E9464028BED76
:1006B0000E94640280E40E94640284EA0E94640250
:1006C00086EA0E9464028FEA0E9464020E94790214
:1006D00094EEE92E90E0F92EC0EB8C2F0E9464027C
:1006E00080E00E94640280E10E946402670180E170
:1006F000A82EB12C10E000E0F801EC0DFD1D849156
:100700000E944F020F5F1F4F08301105A9F7E1E06B
:10071000AE1AB108F8E0CF0ED11CA114B10451F704
:10072000CF5F20E8E20EF11CC63BB9F60E947902C9
:1007300082E08093C00088E98093C10086E08093C6
:10074000C20087E690E09093C5008093C40078943F
:10075000C6E0D2E012E880918802811101C0FFCF8B
:100760000E947902FE01212F11922A95E9F7109239
:100770008802F1CFDC01FC01672F71917723E1F74B
:10078000329704C07C916D9370836291AE17BF075E
:08079000C8F30895F894FFCFAF
:0607980002CF03F378001C
:00000001FF
