:100000000C9472000C948B000C948B000C948B005D
:100010000C948B000C948B000C948B000C948B0034
:100020000C948B000C948B000C948B000C948B0024
:100030000C948B000C948B000C948B000C948B0014
:100040000C948B000C948B000C948B000C948B0004
:100050000C948B000C948B000C948B000C948B00F4
:100060000C948B000C948B000C948B000C948B00E4
:100070000C948B000C948B000C948B000C948B00D4
:100080000C948B000C948B000C948B000C948B00C4
:100090000C948B000C948B000C948B000C948B00B4
:1000A0000C948B000C948B000C948B000C948B00A4
:1000B0000C948B000C948B000C948B000C948B0094
:1000C0000C948B000C948B000C948B000C948B0084
:1000D0000C948B000C948B000C948B000C948B0074
:1000E0000C948B0011241FBE00E00CBFCFEFD1E2B7
:1000F000DEBFCDBF12E0A0E0B2E0E2E7F1E000E059
:100100000BBF02C007900D92A630B107D9F70E942D
:100110008D000C94B7000C94000082E08093C00026
:100120008091C10088618093C1008091C200866087
:100130008093C2001092C50087E68093C400699A3C
:10014000E0E0F2E081919091C00095FFFCCF8093B8
:10015000C60022E0E530F207A9F78FEF91EE24E028
:10016000815090402040E1F700C00000E9CFF894B2
:02017000FFCFBF
:060172007469730A0D0020
:00000001FF
