:100000000C94F2010C9413020C9413020C9413023E
:100010000C9413020C9413020C9413020C9413020C
:100020000C9413020C9413020C9413020C941302FC
:100030000C9413020C9413020C9413020C941302EC
:100040000C9413020C9413020C94FB020C94CE0239
:100050000C9413020C9413020C9413020C941302CC
:100060000C9413020C94AA020C9413020C94130225
:100070000C9413020C9413020C9413020C941302AC
:100080000C9493020C9413020C9413020C9413021C
:100090000C9413020C9413020C9413020C9413028C
:1000A0000C9413020C9413020C9413020C9413027C
:1000B0000C9413020C9413020C9413020C9413026C
:1000C0000C9413020C9413020C9413020C9413025C
:1000D0000C9413020C9413020C9413020C9413024C
:1000E0000C941302000000000000000000005F00FC
:1000F00000000000000007000700000000147F144B
:100100007F14000000242A7F2A1200000023130815
:1001100064620000003649552250000000000503CB
:1001200000000000001C2241000000000041221CD1
:100130000000000000082A1C2A0800000008083EF1
:100140000808000000A06000000000000008080887
:100150000808000000606000000000000020100897
:1001600004020000003E5149453E00000000427F6D
:100170004000000000625149494600000022414908
:1001800049360000001814127F1000000027454572
:1001900045390000003C4A4949300000000171091E
:1001A0000503000000364949493600000006494968
:1001B000291E000000003636000000000000AC6C74
:1001C0000000000000081422410000000014141474
:1001D0001414000000412214080000000002015124
:1001E0000906000000324979413E0000007E0909FD
:1001F000097E0000007F494949360000003E414128
:1002000041220000007F4141221C0000007F49493B
:1002100049410000007F090909010000003E4141F9
:1002200051720000007F0808087F000000417F41F4
:1002300000000000002040413F010000007F081442
:1002400022410000007F404040400000007F020C3F
:10025000027F0000007F0408107F0000003E414143
:10026000413E0000007F090909060000003E41519F
:10027000215E0000007F0919294600000026494937
:10028000493200000001017F01010000003F4040B1
:10029000403F0000001F2040201F0000003F40386A
:1002A000403F00000063140814630000000304785A
:1002B000040300000061514945430000007F4141B3
:1002C0000000000000020408102000000041417FEF
:1002D0000000000000040201020400000080808091
:1002E000808000000001020400000000002054543F
:1002F00054780000007F48444438000000384444EB
:100300002800000000384444487F0000003854545E
:100310005418000000087E09020000000018A4A480
:10032000A47C0000007F08040478000000007D0029
:10033000000000000080847D00000000007F102885
:100340004400000000417F4000000000007C0418D1
:1003500004780000007C08047C000000003844445D
:100360003800000000FC2424180000000018242499
:10037000FC00000000007C08040000000048545409
:100380002400000000047F4400000000003C4040C6
:100390007C000000001C2040201C0000003C40307D
:1003A000403C00000044281028440000001CA0A08D
:1003B0007C000000004464544C44000000083641B6
:1003C0000000000000007F0000000000004136082F
:1003D000000000000002010102010000000205050A
:1003E0000200000011241FBECFEFD1E2DEBFCDBF5F
:1003F00000E00CBF12E0A0E0B2E0E0E7FFE000E0C8
:100400000BBF02C007900D92A838B107D9F722E0C0
:10041000A8E8B2E001C01D92A239B207E1F70E943C
:1004200028030C94B6070C9400008093BB0084E86A
:100430008093BC008091BC0087FFFCCF8091B90005
:10044000887F883221F0803321F082E0089580E0B7
:10045000089581E0089594EA9093BC009091BC00C7
:1004600097FFFCCF9091B900987F983091F48093DA
:10047000BB0084E88093BC008091BC0087FFFCCF68
:100480008091B900887F883131F0803231F083E08B
:10049000089580E0089581E0089582E00895CF9363
:1004A000C82F80917E020E942B0280E40E941502D8
:1004B0008C2F0E94150284E98093BC008091BC00BF
:1004C00084FDFCCFCF910895CF93C82F80917E02F9
:1004D0000E942B0280E00E9415028C2F0E941502C0
:1004E00084E98093BC008091BC0084FDFCCFCF9157
:1004F0000895CF93C62F80550E9464028C2F880FD9
:10050000880F880F88700E94640228E0C29FC00193
:10051000112424E0959587952A95E1F78F70805FE7
:10052000CF910C9464021F920F920FB60F92112478
:100530008F939F9380919002909191020196909356
:100540009102809390029F918F910F900FBE0F9018
:100550001F9018951F920F920FB60F9211240BB691
:100560000F928F93EF93FF938091C600E0917C02EE
:10057000F0917D0280838D3059F41082FF91EF91CC
:100580008F910F900BBE0F900FBE0F901F9018957C
:100590003196F0937D02E0937C02F0CF1F920F9290
:1005A0000FB60F9211242F933F938F939F939091A7
:1005B0007B028091800089238093800020917A02C1
:1005C0008091800094E0290290011124822B809375
:1005D000800080917A02823061F483E080937A0215
:1005E0009F918F913F912F910F900FBE0F901F9071
:1005F000189582E0F3CF1F920F920FB60F9211243D
:100600002F933F938F939F939091790280918000D5
:10061000892380938000209178028091800090E16E
:10062000290290011124822B80938000809178020E
:10063000823061F483E0809378029F918F913F91A3
:100640002F910F900FBE0F901F90189582E0F3CF5F
:10065000CF93DF93CDB7DEB768970FB6F894DEBFC0
:100660000FBECDBF88E780937E02089A109A2FEFC5
:1006700033ED80E3215030408040E1F700C00000BE
:1006800082E18093B8008091B9008C7F8093B9009B
:1006900085E08093BC008EEA0E94640285ED0E9492
:1006A000640280E80E94640288EA0E9464028FE388
:1006B0000E94640283ED0E94640280E00E94640252
:1006C00080E40E9464028DE80E94640284E10E943A
:1006D000640280E20E94640280E00E94640281EA77
:1006E0000E94640288EC0E9464028AED0E94640207
:1006F00082E10E94640281E80E9464028FEC0E9401
:10070000640289ED0E94640281EF0E9464028BED15
:100710000E94640280E40E94640284EA0E946402EF
:1007200086EA0E9464028FEA0E94640210E060E0A0
:10073000812F0E94790200E080E00E944F020F5F4B
:100740000038D1F71F5F183091F782E08093C00026
:100750008091C10088698093C1008091C200866049
:100760008093C2001092C50087E68093C4008091F8
:10077000780240917A0220918000A0E18A02C001B3
:100780001124B4E04B02A0011124842B822B80930E
:1007900080008091810089618093810080916F0049
:1007A0008C6080936F0080E49FE19093870080933A
:1007B000860080EA9FE0909389008093880080EC17
:1007C00084B9809191008A6080939100809171003A
:1007D00082608093710080ED97E090939900809300
:1007E0009800789470E0C72E72E0D72EF12CE12C9F
:1007F000412CE2E15E2EEAE76E2E712CFFE72F2EF0
:10080000F2E03F2EFE0131964F01D60112962D9156
:100810003C91032E000C440B550BC301B2010E9406
:100820009F042D8B3E8B4F8B588FC60104969F9350
:100830008F93FF92EF923F922F929F928F920E94FE
:10084000E00460E080E00E9479020FB6F894DEBF19
:100850000FBECDBF8401D8018C9181113AC0ED89C2
:10086000FE89F0938700E093860080918600909146
:100870008700969587959093890080938800D6018C
:100880002D913C9180919002909191028217930753
:10089000CCF31092910210929002BFEFEB1AFB0A78
:1008A000E8E0CE0ED11CFFE0EF16F10409F0ADCF69
:1008B00020E931E030938700209386008091860004
:1008C00090918700969587959093890080938800F2
:1008D000F1CF8A3031F40F5F1F4F60E081E00E945A
:1008E0007902B12CA12CD801EC910E2E000CFF0B3B
:1008F000B09763E0EE0FFF1F6A95E1F7EA0DFB1D6D
:10090000EC51FF4F84910E944F02BFEFAB1ABB0A1C
:10091000E8E0AE16B10439F70F5F1F4F9CCFDC0142
:10092000FC01672F71917723E1F7329704C07C9126
:100930006D9370836291AE17BF07C8F30895052EBB
:1009400097FB1EF400940E94B60457FD07D00E9446
:10095000BE0407FC03D04EF40C94B60450954095A9
:10096000309521953F4F4F4F5F4F0895909580955B
:10097000709561957F4F8F4F9F4F0895A1E21A2E7A
:10098000AA1BBB1BFD010DC0AA1FBB1FEE1FFF1F33
:10099000A217B307E407F50720F0A21BB30BE40B83
:1009A000F50B661F771F881F991F1A9469F76095CA
:1009B0007095809590959B01AC01BD01CF01089584
:1009C0000F931F93CF93DF93CDB7DEB72E970FB65C
:1009D000F894DEBF0FBECDBF0E891F8986E08C83E1
:1009E0001A8309838FEF9FE79E838D83AE01465E56
:1009F0005F4F688D798DCE0101960E9410052F8181
:100A00003885020F131FF80110822E960FB6F89446
:100A1000DEBF0FBECDBFDF91CF911F910F91089523
:100A20002F923F924F925F926F927F928F929F92FE
:100A3000AF92BF92CF92DF92EF92FF920F931F93EC
:100A4000CF93DF9300D000D000D01F921F92CDB77C
:100A5000DEB77C013B018A01FC011782168283818B
:100A600081FFDDC1CE0101965C01F7019381F301A5
:100A700093FD859193FF81913F01882309F453C130
:100A8000853239F493FD859193FF81913F01853241
:100A900029F4B70190E00E942807E7CF912C212C80
:100AA000312CFFE1F31538F08B3211F190F48032E4
:100AB00009F1833229F137FC3CC020ED280F2A30A0
:100AC00050F536FE20C08AE0989E200D1124922E0B
:100AD00006C08D3291F0803371F7689430F8F301DD
:100AE00093FD859193FF81913F018111DACF21C060
:100AF000689431F8689432F8F2CF689433F8EFCF05
:100B0000689434F8ECCFEAE02E9E200D1124222EBA
:100B1000689435F8E4CF8E3229F436FC04C1689429
:100B200036F8DDCF8C3619F4689437F8D8CF88368C
:100B3000B1F2982F9F7D95549330E0F08336A1F168
:100B40008337C1F1833509F063C02801F2E04F0E0D
:100B5000511CF801C080D180692D70E036FC02C0C4
:100B60006FEF7FEFC6010E9412074C01689437F8BF
:100B700082010AC00C5F1F4FFFE3F983882483942E
:100B8000912C6501E89437F833FE2DC0522C811466
:100B9000910471F5552009F468CFB70180E290E027
:100BA0000E9428075A94F6CFF801808189830E5F4E
:100BB0001F4FE4CF2801F2E04F0E511CF801C08016
:100BC000D180692D70E036FC02C06FEF7FEFC60167
:100BD0000E941D074C018201D5CFB70180E290E051
:100BE0000E9428072A942814190409F0B0F7CECFE0
:100BF000F60137FC859137FE81916F01B70190E0D6
:100C00000E94280751105A94F1E08F1A9108BFCF23
:100C1000843619F0893609F077C0F80137FE6BC0C9
:100C200060817181828193810C5F1F4FF32DFF766C
:100C30003F2E97FF09C090958095709561957F4FE5
:100C40008F4F9F4F689437F82AE030E0A5010E944B
:100C50005807C82ECA188C2C432C36FE0CC0E894BA
:100C600040F8C91440F434FE05C032FC03C0F32D33
:100C7000FE7E4F2E892C44FEAAC0FE01EC0DF11D14
:100C80008081803309F09CC0242D297E422E842D42
:100C90008870582E43FCAAC040FEA4C09C2C82142D
:100CA00018F42C0C922C981844FEA6C0B70180E3CF
:100CB00090E00E94280742FE09C088E790E041FECC
:100CC00002C088E590E0B7010E942807C91408F423
:100CD0009FC0CA94D12C9FEFC91AD90ACA0CDB1C39
:100CE000F60182916F01B70190E00E942807AC14D1
:100CF000BD04B1F74FCF60817181072E000C880BC6
:100D0000990B0E5F1F4F92CFD32CE894D4F82AE0B2
:100D100030E08537E1F1232D297FD22E8F36A9F1DE
:100D2000F0F4883551F1F701868197812B960FB643
:100D3000F894DEBF0FBECDBFDF91CF911F910F9111
:100D4000FF90EF90DF90CF90BF90AF909F908F90EB
:100D50007F906F905F904F903F902F9008958037D5
:100D600049F0883701F7D4FE02C06894D2F820E138
:100D700030E00DC06894D4F8F6CF34FE03C0822F63
:100D80008660D82E20E132E002C028E030E0F80191
:100D9000D7FE0FC060817181828193810C5F1F4FEC
:100DA000A5010E945807C82ECA183D2CE89437F8B0
:100DB00052CF6081718190E080E00E5F1F4FF0CFD5
:100DC00042FC02C0839463CF8394839460CF842DCC
:100DD000867809F45CCFF6CFB70180E290E00E94FC
:100DE000280783948214C0F3512C5ECF522C5818DC
:100DF000821408F459CFF8CF842D867809F466CF91
:100E00008BE241FE80E247FC8DE2B70190E05CCFCF
:100E1000B70180E390E00E9428079A9457CF8FEFA4
:100E20009FEF84CFFC010590615070400110D8F70E
:100E3000809590958E0F9F1F0895FC016150704022
:100E400001900110D8F7809590958E0F9F1F0895FF
:100E50000F931F93CF93DF93182F092FEB018B81F3
:100E600081FD09C01FEF0FEF812F902FDF91CF91F0
:100E70001F910F91089582FF14C02E813F818C81B4
:100E80009D81281739073CF4E881F981CF0101964B
:100E90009983888310838E819F8101969F838E839F
:100EA000E3CFE885F985812F1995892BA1F3DACF56
:100EB000FA01AA27283051F1203181F1E8946F938B
:100EC0006E7F6E5F7F4F8F4F9F4FAF4FB1E03ED031
:100ED000B4E03CD0670F781F891F9A1FA11D680FCF
:100EE000791F8A1F911DA11D6A0F711D811D911D02
:100EF000A11D20D009F468943F912AE0269F112477
:100F00003019305D3193DEF6CF010895462F4770DA
:100F1000405D4193B3E00FD0C9F7F6CF462F4F7035
:100F2000405D4A3318F0495D31FD4052419302D093
:100F3000A9F7EACFB4E0A695979587957795679539
:100F4000BA95C9F700976105710508959B01AC0139
:100F50000A2E06945795479537952795BA95C9F760
:100F6000620F731F841F951FA01D0895F894FFCF73
:100F7000AD014A0120453400AD014A01204534004D
:100F8000D600EE0120423400D6000B02204335008B
:100F9000D6004B02204435006B00930220453500FB
:100FA0006B004B0220443500D6000B022043350075
:100FB000D600EE0120423400AD01B80120413400DA
:100FC000D600B80120413400D6000B022043350082
:100FD000AD01930220453500D6004B022044350078
:100FE000D6000B022043350002CF03F38802782598
:080FF00032643A202573000071
:00000001FF
