:100000000C9472000C9493000C9493000C94930045
:100010000C9493000C9493000C9493000C94930014
:100020000C9493000C9493000C9493000C94930004
:100030000C9493000C9493000C9493000C949300F4
:100040000C9493000C9493000C9411010C94E40014
:100050000C9493000C9493000C9493000C949300D4
:100060000C9493000C9455010C9493000C94930001
:100070000C9493000C9493000C9493000C949300B4
:100080000C943E010C9493000C9493000C949300F8
:100090000C9493000C9493000C9493000C94930094
:1000A0000C9493000C9493000C9493000C94930084
:1000B0000C9493000C9493000C9493000C94930074
:1000C0000C9493000C9493000C9493000C94930064
:1000D0000C9493000C9493000C9493000C94930054
:1000E0000C94930011241FBECFEFD1E2DEBFCDBF31
:1000F00000E00CBF12E0A0E0B2E0EEECF5E000E0C2
:100100000BBF02C007900D92A83BB107D9F722E0C0
:10011000A8EBB2E001C01D92A23CB207E1F70E9439
:1001200079010C94E5020C9400008093BB0084E8F4
:100130008093BC008091BC0087FFFCCF8091B90008
:10014000887F883221F0803321F082E0089580E0BA
:10015000089581E0089594EA9093BC009091BC00CA
:1001600097FFFCCF9091B900987F983091F48093DD
:10017000BB0084E88093BC008091BC0087FFFCCF6B
:100180008091B900887F883131F0803231F083E08E
:10019000089580E0089581E0089582E00895CF9366
:1001A000C82F809106020E94AB0080E00E9495005B
:1001B0008C2F0E94950084E98093BC008091BC0044
:1001C00084FDFCCFCF9108951F920F920FB60F922E
:1001D00011242F933F938F939F93909105028091C9
:1001E0008000892380938000209104028091800008
:1001F00094E0290290011124822B80938000809149
:100200000402823061F483E0809304029F918F9115
:100210003F912F910F900FBE0F901F90189582E085
:10022000F3CF1F920F920FB60F9211242F933F938B
:100230008F939F93909103028091800089238093F4
:100240008000209102028091800090E129029001BB
:100250001124822B8093800080910202823061F40D
:1002600083E0809302029F918F913F912F910F9095
:100270000FBE0F901F90189582E0F3CF1F920F9240
:100280000FB60F9211248F939F938091C00290918B
:10029000C10201969093C1028093C0029F918F91F9
:1002A0000F900FBE0F901F9018951F920F920FB6D0
:1002B0000F9211240BB60F928F93EF93FF938091BF
:1002C000C600E0910002F091010280838D3059F464
:1002D0001082FF91EF918F910F900BBE0F900FBE88
:1002E0000F901F9018953196F0930102E093000251
:1002F000F0CF88E780930602089A109A2FEF33ED2B
:1003000080E3215030408040E1F700C0000082E1EE
:100310008093B8008091B9008C7F8093B90085E00C
:100320008093BC008EEA0E94CF0085ED0E94CF0032
:1003300080E80E94CF0088EA0E94CF008FE30E94ED
:10034000CF0083ED0E94CF0080E00E94CF0080E4C8
:100350000E94CF008DE80E94CF0084E10E94CF0070
:1003600080E20E94CF0080E00E94CF0081EA0E94DC
:10037000CF0088EC0E94CF008AED0E94CF0082E17E
:100380000E94CF0081E80E94CF008FEC0E94CF0036
:1003900089ED0E94CF0081EF0E94CF008BED0E947B
:1003A000CF0080E40E94CF0084EA0E94CF0086EA5A
:1003B0000E94CF008FEA0E94CF00C0EB14E98C2F7F
:1003C0000E94CF0080E00E94CF0080E10E94CF0019
:1003D000D0E0809106020E94AB0080E40E9495006C
:1003E00080E00E9495001093BC008091BC0084FDC9
:1003F000FCCFDF5FD03869F7CF5FC83B01F782E001
:100400008093C0008091C10088698093C100809171
:10041000C20086608093C2001092C50087E6809378
:10042000C400809191008A60809391008091710056
:1004300082608093710080ED97E0909399008093A3
:10044000980080910202409104022091800030E1E6
:100450008302C001112434E04302A0011124842B43
:10046000822B80938000809181008961809381003C
:1004700080916F008C6080936F0080EC84B980E481
:100480009FE19093870080938600809186009091F1
:10049000870096958795909389008093880078943B
:1004A000C7E0D2E0C12C72E1D72E7AE7E72EF12C1B
:1004B00082E0C73BD80789F42CE731E0309387000E
:1004C000209386008091860090918700969587956D
:1004D0009093890080938800F1CF2A813B81032E7D
:1004E000000C440B550BC701B6010E94A4023093C7
:1004F00087002093860080918600909187009695D2
:100500008795909389008093880028813981809114
:10051000C0029091C10282179307CCF31092C102DE
:100520001092C0022496C4CFDC01FC01672F7191A8
:100530007723E1F7329704C07C916D9370836291C9
:10054000AE17BF07C8F30895052E97FB1EF400945D
:100550000E94BB0257FD07D00E94C30207FC03D0D4
:100560004EF40C94BB0250954095309521953F4F29
:100570004F4F5F4F089590958095709561957F4F8F
:100580008F4F9F4F0895A1E21A2EAA1BBB1BFD019E
:100590000DC0AA1FBB1FEE1FFF1FA217B307E40762
:1005A000F50720F0A21BB30BE40BF50B661F771FBA
:1005B000881F991F1A9469F760957095809590959A
:0E05C0009B01AC01BD01CF010895F894FFCF5F
:1005CE00B80202CF03F378AD014A01AD014A01D65C
:1005DE0000EE01D6000B02D6004B026B0093026BAD
:1005EE00004B02D6000B02D600EE01AD01B801D6CB
:1005FE0000B801D6000B02AD019302D6004B02D615
:10060E00000B02AD01EE01D600EE01D6000B02ADDD
:10061E00014B02AD019302AD010B02AD01B801AD6C
:10062E0001B801AD010852D6000852AD014B02D6F9
:10063E0000BA02AD017003D6001003D600BA0283D1
:10064E00029302D6000B02AD019302D6004B02D6E6
:10065E00000B02AD01EE01D600EE01D6000B02AD8D
:10066E00014B02AD019302AD010B02AD01B801AD1C
:08067E0001B801AD01085200B2
:00000001FF
